:100000000C942A000C94180F0C944B0F0C947E0F38
:100010000C949E0C0C94710C0C94440C0C94170CC6
:100020000C94EA0B0C94BD0B0C94900B0C94630B8A
:100030000C9447000C9447000C9447000C94470024
:100040000C9447000C9447000C9447000C94470014
:100050000C94470011241FBECFE5D8E0DEBFCDBF12
:1000600010E0A0E6B0E0ECE3F0E402C005900D92F1
:10007000A63EB107D9F711E0A6EEB0E001C01D928F
:10008000A531B107E1F70E948F1C0C941C200C9441
:100090000000EF92FF920F931F937B018C0120E0F1
:1000A00030E040E05FE40E94F50388238CF0C80153
:1000B000B70120E030E040E05FE40E94C1010E940F
:1000C00055049B01AC01205030404040504806C0D0
:1000D000C801B7010E9455049B01AC01B901CA01D6
:1000E0001F910F91FF90EF900895A0E0B0E0EBE733
:1000F000F0E00C94E51FDC012B01FA019C91923099
:1001000008F439C1EB018881823008F433C194309E
:1001100069F4843009F02FC111969C91119789815F
:10012000981709F428C1A6ECB0E025C1843009F481
:1001300021C18230A9F4923009F01DC19A01AD01AC
:1001400088E0EA010990AE01E90109929E0181501F
:10015000C1F7E201898111969C918923818308C1AD
:10016000923009F407C112962D903C901397EB0141
:100170008A819B811496AD90BD90CD90DC901797AD
:10018000EC80FD800E811F819101281B390BB90184
:1001900037FF04C066277727621B730B6032710537
:1001A0000CF061C0121613066CF537014801062EDB
:1001B00004C096948794779467940A94D2F721E0C8
:1001C00030E040E050E004C0220F331F441F551FB1
:1001D0006A95D2F721503040404050402E213F21B7
:1001E00040235123211531054105510521F021E01E
:1001F00030E040E050E079018A01E628F72808293C
:1002000019293CC0232BD1F1260E371E350146019A
:10021000062E04C096948794779467940A94D2F734
:1002200021E030E040E050E004C0220F331F441FC3
:10023000551F6A95D2F721503040404050402A2146
:100240003B214C215D21211531054105510521F04E
:1002500021E030E040E050E059016A01A628B728CB
:10026000C828D9280BC0821593052CF01C01AA249C
:10027000BB24650103C0EE24FF24870111969C91E5
:10028000D20111968C91981709F445C0992339F041
:10029000A80197012A193B094C095D0906C0A6016E
:1002A00095012E193F09400B510B57FD08C01182D3
:1002B0003382228224833583468357831DC081E0A5
:1002C00081833382228288279927DC01821B930B4A
:1002D000A40BB50B84839583A683B7830DC0220F2F
:1002E000331F441F551F24833583468357838281E0
:1002F000938101979383828324813581468157813D
:10030000DA01C9010197A109B1098F5F9F4FAF4F72
:10031000BF4328F30BC0918333822282EA0CFB1C7B
:100320000C1D1D1DE482F5820683178383E0808304
:10033000248135814681578157FF1AC0C901AA27F8
:1003400097FDA095BA2F81709070A070B0705695EF
:10035000479537952795822B932BA42BB52B848318
:100360009583A683B7838281938101969383828349
:10037000DF0101C0D201CD01CDB7DEB7E2E10C94BF
:100380000120A0E2B0E0E7ECF1E00C94F11F6983FA
:100390007A838B839C832D833E834F835887E9E048
:1003A000EE2EF12CEC0EFD1ECE010196B7010E943F
:1003B0007E058E010F5E1F4FCE010596B8010E948B
:1003C0007E058A8991E089278A8BC701B801AE0131
:1003D000475E5F4F0E9475000E94A904A096E6E068
:1003E0000C940D20A0E2B0E0E8EFF1E00C94F11FD6
:1003F00069837A838B839C832D833E834F835887C5
:10040000F9E0EF2EF12CEC0EFD1ECE010196B701A6
:100410000E947E058E010F5E1F4FCE010596B8012A
:100420000E947E05C701B801AE01475E5F4F0E9482
:1004300075000E94A904A096E6E00C940D20A0E2AD
:10044000B0E0E5E2F2E00C94E51F69837A838B83E8
:100450009C832D833E834F835887CE010196BE0136
:10046000675F7F4F0E947E05CE010596BE016F5EDD
:100470007F4F0E947E059985923088F0898982306D
:10048000C8F0943019F4823051F404C0843029F457
:10049000923081F486EC90E0C6C0923049F420E0BE
:1004A0009A858A89981321E02A87CE010996BBC0D4
:1004B000823049F420E09A858A89981321E02A8BBA
:1004C000CE014196B0C02D843E844F8458886D88FB
:1004D0007E888F88988CEE24FF248701AA24BB2471
:1004E000650140E050E060E070E0E0E0F0E0C10174
:1004F00081709070892BE9F0E60CF71C081D191D1E
:100500009A01AB012A0D3B1D4C1D5D1D80E090E062
:10051000A0E0B0E0E614F7040805190520F481E036
:1005200090E0A0E0B0E0BA01A901480F591F6A1F8E
:100530007B1FAA0CBB1CCC1CDD1C97FE08C081E0F5
:1005400090E0A0E0B0E0A82AB92ACA2ADB2A3196B6
:10055000E032F10549F0660C771C881C991C569412
:10056000479437942794C3CFFA85EA892B893C892D
:100570008B859C85280F391F2E5F3F4F17C0CA01FE
:1005800081709070892B61F016950795F794E79428
:1005900080E090E0A0E0B0E8E82AF92A0A2B1B2BC3
:1005A00076956795579547952F5F3F4F77FDE7CF36
:1005B0000CC0440F551F661F771F17FD4160EE0CDE
:1005C000FF1C001F111F21503040403090E05907A0
:1005D00090E0690790E4790760F32B8F3C8FDB0193
:1005E000CA018F779070A070B07080349105A1051A
:1005F000B10561F447FD0AC0E114F10401051105DC
:1006000029F0405C5F4F6F4F7F4F40781A8EFE1786
:1006100011F081E08A8F4D8F5E8F6F8F78A383E01A
:10062000898FCE0149960E94A904A096E2E10C941C
:100630000120A8E1B0E0EFE1F3E00C94ED1F698345
:100640007A838B839C832D833E834F835887B9E0C5
:10065000EB2EF12CEC0EFD1ECE010196B7010E948F
:100660007E058E010F5E1F4FCE010596B8010E94D8
:100670007E052985223008F47EC03989323010F495
:10068000B8017CC08A859A8989278A87243011F02D
:10069000223031F4231709F06EC066EC70E06EC0B2
:1006A000343039F41D861E861F86188A1C861B86E8
:1006B00004C0323021F484E08987B7015FC02B8504
:1006C0003C858B899C89281B390B3C872B87ED84C3
:1006D000FE840F851889AD88BE88CF88D88CEA142F
:1006E000FB040C051D0540F4EE0CFF1C001F111F40
:1006F000215030403C872B8720E030E040E050E044
:1007000080E090E0A0E0B0E460E070E0EA14FB0478
:100710000C051D0540F0282B392B4A2B5B2BEA18C2
:10072000FB080C091D09B695A79597958795EE0CC2
:10073000FF1C001F111F6F5F7F4F6F31710531F775
:10074000DA01C9018F779070A070B0708034910584
:10075000A105B10561F427FD0AC0E114F10401050A
:10076000110529F0205C3F4F4F4F5F4F20782D87B8
:100770003E874F87588BBE01675F7F4FCB010E943A
:10078000A9046896EAE00C940920A8E1B0E0EBEC3B
:10079000F3E00C94F11F69837A838B839C832D8310
:1007A0003E834F83588789E0E82EF12CEC0EFD1E26
:1007B000CE010196B7010E947E058E010F5E1F4F8C
:1007C000CE010596B8010E947E058985823040F0F1
:1007D0008989823028F0C701B8010E94F60501C05E
:1007E0008FEF6896E6E00C940D20A8E1B0E0EBEF07
:1007F000F3E00C94F11F69837A838B839C832D83B0
:100800003E834F83588789E0E82EF12CEC0EFD1EC5
:10081000CE010196B7010E947E058E010F5E1F4F2B
:10082000CE010596B8010E947E058985823040F090
:100830008989823028F0C701B8010E94F60501C0FD
:100840008FEF6896E6E00C940D20A8E1B0E0EBE2B3
:10085000F4E00C94F11F69837A838B839C832D834E
:100860003E834F83588789E0E82EF12CEC0EFD1E65
:10087000CE010196B7010E947E058E010F5E1F4FCB
:10088000CE010596B8010E947E058985823040F030
:100890008989823028F0C701B8010E94F60501C09D
:1008A00081E06896E6E00C940D20ACE0B0E0EBE56A
:1008B000F4E00C94F51F69837A838B839C83CE01CB
:1008C0000196BE016B5F7F4F0E947E058D81823055
:1008D00061F1823050F1843021F48E81882351F10E
:1008E0002EC02F81388537FD20C06E812F31310514
:1008F0001CF06623F9F023C08EE190E0821B930B7D
:1009000029853A854B855C8504C056954795379572
:1009100027958A95D2F76623B1F05095409530958A
:1009200021953F4F4F4F5F4F0EC020E030E040E039
:1009300050E009C02FEF3FEF4FEF5FE704C020E02A
:1009400030E040E050E8B901CA012C96E2E00C9496
:100950001120DF92EF92FF920F931F93FC01E4802E
:10096000F58006811781D1808081823048F480E053
:1009700090E0A0E1B0E0E82AF92A0A2B1B2BA5C0E1
:10098000843009F49FC0823021F4EE24FF248701D3
:1009900005C0E114F1040105110519F4E0E0F0E0EF
:1009A00096C0628173819FEF623879070CF05BC05B
:1009B00022E83FEF261B370B2A3131052CF020E0CF
:1009C00030E040E050E02AC0B801A701022E04C088
:1009D00076956795579547950A94D2F781E090E010
:1009E000A0E0B0E004C0880F991FAA1FBB1F2A9582
:1009F000D2F70197A109B1098E219F21A023B1232C
:100A00000097A105B10521F081E090E0A0E0B0E001
:100A10009A01AB01282B392B4A2B5B2BDA01C90138
:100A20008F779070A070B07080349105A105B105EA
:100A300039F427FF09C0205C3F4F4F4F5F4F04C080
:100A4000215C3F4F4F4F5F4FE0E0F0E02030A0E0EF
:100A50003A07A0E04A07A0E45A0710F0E1E0F0E00E
:100A600079018A0127C06038710564F5FB01E158FE
:100A7000FF4FD801C7018F779070A070B07080349D
:100A80009105A105B10539F4E7FE0DC080E490E0C1
:100A9000A0E0B0E004C08FE390E0A0E0B0E0E80E9A
:100AA000F91E0A1F1B1F17FF05C016950795F7941F
:100AB000E794319687E016950795F794E7948A9521
:100AC000D1F705C0EE24FF248701EFEFF0E06E2F91
:100AD000679566276795902F9F77D794DD24D794E5
:100AE0008E2F8695492F462B582F5D29B701CA01B5
:100AF0001F910F91FF90EF90DF900895FC01DB01B3
:100B0000408151812281622F6F7770E0221F22275E
:100B1000221F9381892F880F822B282F30E0991F65
:100B20009927991F11969C93119721153105A9F5C5
:100B3000411551056105710511F482E037C082E865
:100B40009FEF13969C938E9312979A01AB0167E0E7
:100B5000220F331F441F551F6A95D1F783E08C93F2
:100B60000DC0220F331F441F551F12968D919C916B
:100B70001397019713969C938E931297203080E0E1
:100B8000380780E0480780E4580758F314962D93FF
:100B90003D934D935C93179708952F3F310579F45A
:100BA000411551056105710519F484E08C93089590
:100BB00064FF03C081E08C9312C01C9210C02F57B9
:100BC000304013963C932E93129783E08C9387E0EA
:100BD000440F551F661F771F8A95D1F770641496CE
:100BE0004D935D936D937C93179708951F93DC014C
:100BF000FB019C91923008F447C08081823008F458
:100C000043C0943051F411961C91843099F5818140
:100C1000682F70E0611B71093FC0843021F0923071
:100C200031F48230B9F18181882389F12DC0119688
:100C30001C9111978230F1F081811817D9F4129626
:100C40002D913C911397828193818217930794F0A1
:100C500028173907BCF014968D919D910D90BC9189
:100C6000A02D2481358146815781281739074A07ED
:100C70005B0718F4112341F00AC082179307A407F9
:100C8000B50740F4112319F061E070E005C06FEF83
:100C90007FEF02C060E070E0CB011F910895DF9309
:100CA000CF9300D00F92CDB7DEB789838981282FEB
:100CB00030E03B832A838A819B818330910509F44C
:100CC00052C02A813B812430310584F48A819B8182
:100CD0008130910509F12A813B81223031050CF0E8
:100CE0004AC08A819B810097F9F05CC02A813B81D0
:100CF0002530310509F18A819B81853091055CF1B0
:100D00002A813B812630310509F445C08A819B81C7
:100D100087309105C1F146C0A9E5B0E0E9E5F0E012
:100D2000808182608C933EC0A9E5B0E0E9E5F0E007
:100D3000808181608C9336C0A9E5B0E0E9E5F0E000
:100D4000808180628C93AEE4B0E0EEE4F0E08081DC
:100D500080688C9327C0A9E5B0E0E9E5F0E08081E8
:100D600080618C931FC0A9E5B0E0E9E5F0E08081E7
:100D700088608C9317C0A9E5B0E0E9E5F0E08081D8
:100D800084608C930FC0A9E5B0E0E9E5F0E08081D4
:100D900080688C9307C0A9E5B0E0E9E5F0E08081C8
:100DA00080648C930F900F900F90CF91DF910895F6
:100DB000DF93CF9300D00F92CDB7DEB789838981BF
:100DC000282F30E03B832A838A819B8183309105E1
:100DD00009F452C02A813B812430310584F48A8190
:100DE0009B818130910509F12A813B8122303105B7
:100DF0000CF04AC08A819B810097F9F05CC02A817F
:100E00003B812530310509F18A819B81853091052F
:100E10005CF12A813B812630310509F445C08A8185
:100E20009B8187309105C1F146C0A9E5B0E0E9E5B5
:100E3000F0E080818D7F8C933EC0A9E5B0E0E9E5CC
:100E4000F0E080818E7F8C9336C0A9E5B0E0E9E5C3
:100E5000F0E080818F7D8C93AEE4B0E0EEE4F0E0D2
:100E600080818F778C9327C0A9E5B0E0E9E5F0E0B9
:100E700080818F7E8C931FC0A9E5B0E0E9E5F0E0AA
:100E80008081877F8C9317C0A9E5B0E0E9E5F0E0A9
:100E900080818B7F8C930FC0A9E5B0E0E9E5F0E09D
:100EA00080818F778C9307C0A9E5B0E0E9E5F0E099
:100EB00080818F7B8C930F900F900F90CF91DF915B
:100EC0000895DF93CF9300D000D0CDB7DEB78A83EB
:100ED0007C836B8319828B819C81009769F08A8166
:100EE000882F90E0880F991FFC01EA51FF4F8B81FA
:100EF0009C819183808302C082E0898389810F90E5
:100F00000F900F900F90CF91DF910895DF93CF93C3
:100F100000D00F92CDB7DEB79B838A8319828A8176
:100F20009B810097A1F1A3E5B0E0E3E5F0E08081CB
:100F3000877B8C93A3E5B0E0E3E5F0E09081EA8164
:100F4000FB818081892B8C93A3E5B0E0E3E5F0E0A1
:100F500080818F7C8C93A3E5B0E0E3E5F0E09081A5
:100F6000EA81FB818281892B8C93A3E5B0E0E3E5E4
:100F7000F0E08081887F8C93A3E5B0E0E3E5F0E0CA
:100F80009081EA81FB818181892B8C9302C082E070
:100F9000898389810F900F900F90CF91DF910895F1
:100FA000DF93CF930F92CDB7DEB78983E3E5F0E00F
:100FB000898180830F90CF91DF910895DF93CF9344
:100FC0000F92CDB7DEB78983ECE5F0E089818083AD
:100FD0000F90CF91DF910895DF93CF93CDB7DEB718
:100FE000E3E5F0E08081CF91DF910895DF93CF9327
:100FF0000F92CDB7DEB78983A3E5B0E0E3E5F0E07B
:101000008081887F8C93A3E5B0E0E3E5F0E09081F8
:101010008981892B8C930F90CF91DF910895DF9375
:10102000CF930F92CDB7DEB78983A3E5B0E0E3E5B8
:10103000F0E08081877B8C93A3E5B0E0E3E5F0E00E
:1010400090818981892B8C930F90CF91DF910895A6
:10105000DF93CF930F92CDB7DEB78983A3E5B0E0DE
:10106000E3E5F0E080818F7C8C93A3E5B0E0E3E5DD
:10107000F0E090818981892B8C930F90CF91DF9143
:101080000895DF93CF9300D000D00F92CDB7DEB795
:101090009B838A8319828A819B81009709F4CEC041
:1010A000AFE4B0E0EFE4F0E080818C7F8C93AFE4BC
:1010B000B0E0EFE4F0E08081982FEA81FB8180814D
:1010C0008370892B8C93AEE4B0E0EEE4F0E0808195
:1010D000877E8C93AEE4B0E0EEE4F0E08081982F60
:1010E000EA81FB8180818871892B8C93EA81FB8165
:1010F0008281282F30E03D832C838C819D8180313B
:101100009105A1F12C813D81213131052CF48C8197
:101110009D81009771F080C02C813D812032310586
:1011200009F441C08C819D818033910509F458C038
:1011300073C0AFE4B0E0EFE4F0E080818F778C9390
:10114000AFE4B0E0EFE4F0E080818F7D8C93AFE41A
:10115000B0E0EFE4F0E080818F7B8C93AFE4B0E00F
:10116000EFE4F0E080818F7E8C9356C0AFE4B0E076
:10117000EFE4F0E080818F778C93AFE4B0E0EFE4B0
:10118000F0E080818F7D8C93AFE4B0E0EFE4F0E09D
:10119000808180648C93AFE4B0E0EFE4F0E0808184
:1011A00080618C9339C0AFE4B0E0EFE4F0E080817F
:1011B00080688C93AFE4B0E0EFE4F0E0808180627F
:1011C0008C93AFE4B0E0EFE4F0E080818F7B8C9310
:1011D000AFE4B0E0EFE4F0E080818F7E8C931CC040
:1011E000AFE4B0E0EFE4F0E0808180688C93AFE49E
:1011F000B0E0EFE4F0E0808180628C93AFE4B0E097
:10120000EFE4F0E0808180648C93AFE4B0E0EFE441
:10121000F0E0808180618C93AEE4B0E0EEE4F0E039
:101220008081887F8C93AEE4B0E0EEE4F0E09081C2
:10123000EA81FB818181892B8C9302C082E08983C2
:1012400089810F900F900F900F900F90CF91DF91A9
:101250000895DF93CF9300D0CDB7DEB79A8389830B
:10126000ECE4F0E089819A81918380830F900F9064
:10127000CF91DF910895DF93CF9300D000D000D0BD
:10128000CDB7DEB78A837C836B8319828A81282F4E
:1012900030E03E832D838D819E81009731F02D813A
:1012A0003E812130310541F00EC0EAE4F0E08B814F
:1012B0009C819183808309C0E8E4F0E08B819C816C
:1012C0009183808302C081E08983898126960FB64D
:1012D000F894DEBF0FBECDBFCF91DF910895DF93AD
:1012E000CF9300D0CDB7DEB79A838983E6E4F0E0F0
:1012F00089819A81918380830F900F90CF91DF91A4
:101300000895DF93CF93CDB7DEB7ECE4F0E08081B2
:101310009181CF91DF910895DF93CF930F92CDB755
:10132000DEB78983AEE4B0E0EEE4F0E08081887F50
:101330008C93AEE4B0E0EEE4F0E090818981892BFB
:101340008C930F90CF91DF910895DF93CF930F92FD
:10135000CDB7DEB78983AFE4B0E0EFE4F0E08081A1
:101360008C7F8C93AFE4B0E0EFE4F0E08081982FC5
:1013700089818370892B8C93AEE4B0E0EEE4F0E0D9
:101380008081877E8C93AEE4B0E0EEE4F0E0808173
:10139000982F89818871892B8C930F90CF91DF9141
:1013A0000895DF93CF9300D00F92CDB7DEB7898336
:1013B0008981282F30E03B832A838A819B81803179
:1013C0009105A1F12A813B81213131052CF48A81DB
:1013D0009B81009771F080C02A813B8120323105CA
:1013E00009F441C08A819B818033910509F458C07A
:1013F00073C0AFE4B0E0EFE4F0E080818F778C93CE
:10140000AFE4B0E0EFE4F0E080818F7D8C93AFE457
:10141000B0E0EFE4F0E080818F7B8C93AFE4B0E04C
:10142000EFE4F0E080818F7E8C9356C0AFE4B0E0B3
:10143000EFE4F0E080818F778C93AFE4B0E0EFE4ED
:10144000F0E080818F7D8C93AFE4B0E0EFE4F0E0DA
:10145000808180648C93AFE4B0E0EFE4F0E08081C1
:1014600080618C9339C0AFE4B0E0EFE4F0E08081BC
:1014700080688C93AFE4B0E0EFE4F0E080818062BC
:101480008C93AFE4B0E0EFE4F0E080818F7B8C934D
:10149000AFE4B0E0EFE4F0E080818F7E8C931CC07D
:1014A000AFE4B0E0EFE4F0E0808180688C93AFE4DB
:1014B000B0E0EFE4F0E0808180628C93AFE4B0E0D4
:1014C000EFE4F0E0808180648C93AFE4B0E0EFE47F
:1014D000F0E0808180618C930F900F900F90CF91FE
:1014E000DF910895DF93CF9300D00F92CDB7DEB791
:1014F00089838981282F30E03B832A838A819B81DD
:10150000009731F02A813B812130310549F00FC02D
:10151000AEE4B0E0EEE4F0E0808180648C9307C03C
:10152000AEE4B0E0EEE4F0E080818F7B8C930F902E
:101530000F900F90CF91DF910895DF93CF93CDB7A8
:10154000DEB7E6E4F0E080819181CF91DF910895EC
:10155000DF93CF9300D00F92CDB7DEB79B838A8302
:1015600019828A819B810097A1F1A5E4B0E0E5E4AE
:10157000F0E08081877B8C93A5E4B0E0E5E4F0E0C7
:101580009081EA81FB818081892B8C93A5E4B0E076
:10159000E5E4F0E080818F7C8C93A5E4B0E0E5E4A5
:1015A000F0E09081EA81FB818281892B8C93A5E414
:1015B000B0E0E5E4F0E08081887F8C93A5E4B0E0C2
:1015C000E5E4F0E09081EA81FB818181892B8C93B5
:1015D00002C082E0898389810F900F900F90CF9194
:1015E000DF910895DF93CF930F92CDB7DEB7898354
:1015F000E4E4F0E0898180830F90CF91DF9108953A
:10160000DF93CF930F92CDB7DEB78983E3E4F0E0A9
:10161000898180830F90CF91DF910895DF93CF93DD
:10162000CDB7DEB7E4E4F0E08081CF91DF9108959B
:10163000DF93CF930F92CDB7DEB78983A5E4B0E0F7
:10164000E5E4F0E08081887F8C93A5E4B0E0E5E4F8
:10165000F0E090818981892B8C930F90CF91DF915D
:101660000895DF93CF930F92CDB7DEB78983A5E4BA
:10167000B0E0E5E4F0E08081877B8C93A5E4B0E006
:10168000E5E4F0E090818981892B8C930F90CF91D4
:10169000DF910895DF93CF930F92CDB7DEB78983A3
:1016A000A5E4B0E0E5E4F0E080818F7C8C93A5E4D4
:1016B000B0E0E5E4F0E090818981892B8C930F9074
:1016C000CF91DF9108951F920F920FB60F921124C0
:1016D0002F933F934F935F936F937F938F939F933A
:1016E000AF93BF93EF93FF93DF93CF93CDB7DEB765
:1016F000E091E600F091E7000995CF91DF91FF912D
:10170000EF91BF91AF919F918F917F916F915F9179
:101710004F913F912F910F900FBE0F901F901895F2
:101720001F920F920FB60F9211242F933F934F9356
:101730005F936F937F938F939F93AF93BF93EF9339
:10174000FF93DF93CF93CDB7DEB7E091E800F09140
:10175000E9000995CF91DF91FF91EF91BF91AF9192
:101760009F918F917F916F915F914F913F912F91B9
:101770000F900FBE0F901F9018951F920F920FB6EB
:101780000F9211242F933F934F935F936F937F9307
:101790008F939F93AF93BF93EF93FF93DF93CF9379
:1017A000CDB7DEB7E091EA00F091EB000995CF915B
:1017B000DF91FF91EF91BF91AF919F918F917F91B9
:1017C0006F915F914F913F912F910F900FBE0F90AE
:1017D0001F9018951F920F920FB60F9211242F93FE
:1017E0003F934F935F936F937F938F939F93AF93A9
:1017F000BF93EF93FF93DF93CF93CDB7DEB7E09125
:10180000EC00F091ED000995CF91DF91FF91EF9100
:10181000BF91AF919F918F917F916F915F914F9108
:101820003F912F910F900FBE0F901F9018951F9210
:101830000F920FB60F9211242F933F934F935F9304
:101840006F937F938F939F93AF93BF93EF93FF9388
:10185000DF93CF93CDB7DEB7E091EE00F091EF00CC
:101860000995CF91DF91FF91EF91BF91AF919F913A
:101870008F917F916F915F914F913F912F910F9039
:101880000FBE0F901F9018951F920F920FB60F92D8
:1018900011242F933F934F935F936F937F938F9375
:1018A0009F93AF93BF93EF93FF93DF93CF93CDB706
:1018B000DEB7E091F000F091F1000995CF91DF9152
:1018C000FF91EF91BF91AF919F918F917F916F9118
:1018D0005F914F913F912F910F900FBE0F901F90EE
:1018E00018951F920F920FB60F9211242F933F93CA
:1018F0004F935F936F937F938F939F93AF93BF9318
:10190000EF93FF93DF93CF93CDB7DEB7E091F20073
:10191000F091F3000995CF91DF91FF91EF91BF9185
:10192000AF919F918F917F916F915F914F913F9177
:101930002F910F900FBE0F901F9018951F920F922E
:101940000FB60F9211242F933F934F935F936F9392
:101950007F938F939F93AF93BF93EF93FF93DF9307
:10196000CF93CDB7DEB7E091F400F091F500099583
:10197000CF91DF91FF91EF91BF91AF919F918F91A7
:101980007F916F915F914F913F912F910F900FBE7B
:101990000F901F901895DF93CF93CDB7DEB7EAE392
:1019A000F0E08EE78083E7E3F0E01082E4E3F0E02C
:1019B0001082E1E3F0E080EA8083EBE3F0E0108264
:1019C000E8E3F0E01082E5E3F0E01082E2E3F0E02B
:1019D0001082CF91DF910895DF93CF93CDB7DEB71B
:1019E0007894CF91DF910895DF93CF93CDB7DEB791
:1019F000F894CF91DF910895DF93CF93CDB7DEB701
:101A0000A5E5B0E0E5E5F0E080818E7F8C93A5E56B
:101A1000B0E0E5E5F0E0808182608C93A5E5B0E080
:101A2000E5E5F0E080818B7F8C93A5E5B0E0E5E50E
:101A3000F0E0808188608C93A4E5B0E0E4E5F0E01C
:101A400080818F7B8C93ABE5B0E0EBE5F0E08081AB
:101A500080648C93ABE5B0E0EBE5F0E080818068DA
:101A60008C93ABE5B0E0EBE5F0E0808180628C9395
:101A7000CF91DF910895DF93CF93CDB7DEB729974C
:101A80000FB6F894DEBF0FBECDBF8A836B83198279
:101A90008A81882309F05EC08B81282F30E0398746
:101AA0002887888599858130910521F12885398598
:101AB000223031052CF488859985009761F047C064
:101AC000288539852230310521F188859985833033
:101AD000910571F13CC0A5E5B0E0E5E5F0E080815D
:101AE0008E7F8C93A5E5B0E0E5E5F0E080818D7F09
:101AF0008C93C8C0A5E5B0E0E5E5F0E080818160A9
:101B00008C93A5E5B0E0E5E5F0E080818D7F8C93D6
:101B1000B9C0A5E5B0E0E5E5F0E080818E7F8C936B
:101B2000A5E5B0E0E5E5F0E0808182608C93AAC095
:101B3000A5E5B0E0E5E5F0E0808181608C93A5E566
:101B4000B0E0E5E5F0E0808182608C939BC081E0AD
:101B5000898398C08A81813009F05EC08B81282FEB
:101B600030E03F832E838E819F818130910521F16A
:101B70002E813F81223031052CF48E819F81009788
:101B800061F047C02E813F812230310521F18E81E5
:101B90009F818330910571F13CC0A5E5B0E0E5E59A
:101BA000F0E080818B7F8C93A5E5B0E0E5E5F0E087
:101BB0008081877F8C9366C0A5E5B0E0E5E5F0E025
:101BC000808184608C93A5E5B0E0E5E5F0E080815C
:101BD000877F8C9357C0A5E5B0E0E5E5F0E0808114
:101BE0008B7F8C93A5E5B0E0E5E5F0E0808188602F
:101BF0008C9348C0A5E5B0E0E5E5F0E08081846025
:101C00008C93A5E5B0E0E5E5F0E0808188608C93F9
:101C100039C081E0898336C08A81823089F58B8121
:101C2000282F30E03D832C838C819D81823091056B
:101C300031F02C813D812330310581F01EC0A4E5B7
:101C4000B0E0E4E5F0E080818F7B8C93A4E5B0E028
:101C5000E4E5F0E0808180648C9314C0A4E5B0E0FA
:101C6000E4E5F0E0808180648C93A4E5B0E0E4E5F5
:101C7000F0E0808180648C9305C081E0898302C09C
:101C800081E08983898129960FB6F894DEBF0FBE63
:101C9000CDBFCF91DF910895DF93CF9300D000D0D7
:101CA000CDB7DEB78A8319828A81282F30E03C8342
:101CB0002B838B819C818130910589F02B813C8124
:101CC00022303105A1F08B819C810097C1F4ABE5F6
:101CD000B0E0EBE5F0E0808180648C9312C0ABE56E
:101CE000B0E0EBE5F0E0808180688C930AC0ABE562
:101CF000B0E0EBE5F0E0808180628C9302C081E08F
:101D0000898389810F900F900F900F90CF91DF9171
:101D10000895DF93CF9300D000D0CDB7DEB78A838C
:101D200019828A81282F30E03C832B838B819C8110
:101D30008130910589F02B813C8122303105A1F061
:101D40008B819C810097C1F4ABE5B0E0EBE5F0E05E
:101D500080818F7B8C9312C0ABE5B0E0EBE5F0E0C7
:101D600080818F778C930AC0ABE5B0E0EBE5F0E0C3
:101D700080818F7D8C9302C081E0898389810F905F
:101D80000F900F900F90CF91DF910895DF93CF9335
:101D9000CDB7DEB72A970FB6F894DEBF0FBECDBF22
:101DA0008A837C836B8319828B819C810097A1F14C
:101DB0001A868A81882311F421E02A8719868A816C
:101DC000813011F431E039878A859985892B282F54
:101DD00030E038872F831E821D828A81823021F471
:101DE00081E090E09E838D838F8198852D813E8157
:101DF000822B932B009769F08A81882F90E0880FBF
:101E0000991FFC01EA50FF4F8B819C819183808355
:101E100005C081E0898302C082E0898389812A9696
:101E20000FB6F894DEBF0FBECDBFCF91DF910895FE
:101E30001F920F920FB60F9211242F933F934F933F
:101E40005F936F937F938F939F93AF93BF93EF9322
:101E5000FF93DF93CF93CDB7DEB78091F6009091DB
:101E6000F700009729F0E091F600F091F70009954E
:101E7000CF91DF91FF91EF91BF91AF919F918F91A2
:101E80007F916F915F914F913F912F910F900FBE76
:101E90000F901F9018951F920F920FB60F9211245A
:101EA0002F933F934F935F936F937F938F939F9362
:101EB000AF93BF93EF93FF93DF93CF93CDB7DEB78D
:101EC0008091F8009091F900009729F0E091F800D6
:101ED000F091F9000995CF91DF91FF91EF91BF91BA
:101EE000AF919F918F917F916F915F914F913F91B2
:101EF0002F910F900FBE0F901F9018951F920F9269
:101F00000FB60F9211242F933F934F935F936F93CC
:101F10007F938F939F93AF93BF93EF93FF93DF9341
:101F2000CF93CDB7DEB78091FA009091FB00009778
:101F300029F0E091FA00F091FB000995CF91DF9133
:101F4000FF91EF91BF91AF919F918F917F916F9191
:101F50005F914F913F912F910F900FBE0F901F9067
:101F60001895DF93CF93CDB7DEB728970FB6F894C7
:101F7000DEBF0FBECDBF8A836B834C8319828B81FA
:101F8000883008F0EBC08C81882309F072C08A8108
:101F9000282F30E038872F838F81988581309105F5
:101FA00049F12F813885223031052CF48F819885B5
:101FB000009761F05BC02F8138852230310571F1C7
:101FC0008F81988583309105E9F150C0AAE3B0E094
:101FD000EAE3F0E040818B81282F30E081E090E05F
:101FE000022E02C0880F991F0A94E2F7809584237D
:101FF0008C93B6C0A7E3B0E0E7E3F0E040818B81CB
:10200000282F30E081E090E0022E02C0880F991F57
:102010000A94E2F7809584238C93A2C0A4E3B0E0F5
:10202000E4E3F0E040818B81282F30E081E090E014
:10203000022E02C0880F991F0A94E2F7809584232C
:102040008C938EC0A1E3B0E0E1E3F0E040818B81AE
:10205000282F30E081E090E0022E02C0880F991F07
:102060000A94E2F7809584238C937AC081E0898377
:1020700077C08C81813009F06EC08A81282F30E0D2
:102080003E832D838D819E818130910541F12D818B
:102090003E81223031052CF48D819E81009761F0C4
:1020A00057C02D813E812230310561F18D819E81A5
:1020B00083309105D1F14CC0AAE3B0E0EAE3F0E04F
:1020C00040818B81282F30E081E090E0022E02C019
:1020D000880F991F0A94E2F7842B8C9341C0A7E3E1
:1020E000B0E0E7E3F0E040818B81282F30E081E031
:1020F00090E0022E02C0880F991F0A94E2F7842B09
:102100008C932EC0A4E3B0E0E4E3F0E040818B8147
:10211000282F30E081E090E0022E02C0880F991F46
:102120000A94E2F7842B8C931BC0A1E3B0E0E1E3B7
:10213000F0E040818B81282F30E081E090E0022E9A
:1021400002C0880F991F0A94E2F7842B8C9308C071
:1021500081E0898305C081E0898302C081E08983B1
:10216000898128960FB6F894DEBF0FBECDBFCF9100
:10217000DF910895DF93CF93CDB7DEB728970FB6E1
:10218000F894DEBF0FBECDBF8A836B834C83198268
:102190008B81883008F0EAC08C81813009F06DC0F5
:1021A0008A81282F30E038872F838F81988581306E
:1021B000910541F12F813885223031052CF48F8132
:1021C0009885009761F057C02F81388522303105FE
:1021D00061F18F81988583309105D1F14CC0ABE3DB
:1021E000B0E0EBE3F0E040818B81282F30E081E02C
:1021F00090E0022E02C0880F991F0A94E2F7842B08
:102200008C933BC0A8E3B0E0E8E3F0E040818B8131
:10221000282F30E081E090E0022E02C0880F991F45
:102220000A94E2F7842B8C9328C0A5E3B0E0E5E3A1
:10223000F0E040818B81282F30E081E090E0022E99
:1022400002C0880F991F0A94E2F7842B8C9315C063
:10225000A2E3B0E0E2E3F0E040818B81282F30E0A0
:1022600081E090E0022E02C0880F991F0A94E2F7E5
:10227000842B8C9302C081E089838C81882309F0B0
:1022800072C08A81282F30E03E832D838D819E810C
:102290008130910549F12D813E81223031052CF4A8
:1022A0008D819E81009761F05BC02D813E8122303F
:1022B000310571F18D819E8183309105E9F150C026
:1022C000ABE3B0E0EBE3F0E040818B81282F30E01E
:1022D00081E090E0022E02C0880F991F0A94E2F775
:1022E000809584238C9344C0A8E3B0E0E8E3F0E059
:1022F00040818B81282F30E081E090E0022E02C0E7
:10230000880F991F0A94E2F7809584238C9330C03C
:10231000A5E3B0E0E5E3F0E040818B81282F30E0D9
:1023200081E090E0022E02C0880F991F0A94E2F724
:10233000809584238C931CC0A2E3B0E0E2E3F0E03C
:1023400040818B81282F30E081E090E0022E02C096
:10235000880F991F0A94E2F7809584238C9308C014
:1023600081E0898305C081E0898302C081E089839F
:10237000898128960FB6F894DEBF0FBECDBFCF91EE
:10238000DF910895DF93CF9300D000D00F92CDB7A7
:10239000DEB78A836B8319828B81883008F06EC028
:1023A0008A81282F30E03D832C838C819D81813070
:1023B000910541F12C813D81223031052CF48C8135
:1023C0009D81009761F057C02C813D8122303105FD
:1023D00061F18C819D8183309105D1F14CC0ABE3DB
:1023E000B0E0EBE3F0E040818B81282F30E081E02A
:1023F00090E0022E02C0880F991F0A94E2F784270A
:102400008C933EC0A8E3B0E0E8E3F0E040818B812C
:10241000282F30E081E090E0022E02C0880F991F43
:102420000A94E2F784278C932BC0A5E3B0E0E5E3A0
:10243000F0E040818B81282F30E081E090E0022E97
:1024400002C0880F991F0A94E2F784278C9318C062
:10245000A2E3B0E0E2E3F0E040818B81282F30E09E
:1024600081E090E0022E02C0880F991F0A94E2F7E3
:1024700084278C9305C081E0898302C081E0898331
:1024800089810F900F900F900F900F90CF91DF9157
:102490000895DF93CF93CDB7DEB727970FB6F894A3
:1024A000DEBF0FBECDBF8A836B835D834C831982F1
:1024B0008C819D81009709F47BC08B81883008F066
:1024C00074C08A81282F30E03F832E834E815F8144
:1024D0004130510559F18E819F818230910534F44C
:1024E0002E813F812115310569F05CC04E815F81ED
:1024F0004230510579F18E819F818330910509F435
:102500003DC050C0E9E3F0E08081282F30E08B81AE
:10251000882F90E0A90102C0559547958A95E2F76A
:10252000CA018170EC81FD81808344C0E6E3F0E064
:102530008081282F30E08B81882F90E0A90102C094
:10254000559547958A95E2F7CA018170EC81FD8126
:10255000808330C0E3E3F0E08081282F30E08B817E
:10256000882F90E0A90102C0559547958A95E2F71A
:10257000CA018170EC81FD8180831CC0E0E3F0E042
:102580008081282F30E08B81882F90E0A90102C044
:10259000559547958A95E2F7CA018170EC81FD81D6
:1025A000808308C081E0898305C081E0898302C0FF
:1025B00082E08983898127960FB6F894DEBF0FBE2B
:1025C000CDBFCF91DF910895DF93CF9300D000D09E
:1025D0000F92CDB7DEB78A836B8319828A81282F49
:1025E00030E03D832C838C819D8181309105D1F039
:1025F0002C813D81223031052CF48C819D81009706
:1026000061F01FC02C813D812230310581F08C8129
:102610009D818330910581F014C0EAE3F0E08B8165
:10262000808311C0E7E3F0E08B8180830CC0E4E39A
:10263000F0E08B81808307C0E1E3F0E08B81808351
:1026400002C081E0898389810F900F900F900F90D5
:102650000F90CF91DF910895DF93CF9300D000D0FA
:102660000F92CDB7DEB78A836B8319828A81282FB8
:1026700030E03D832C838C819D8181309105D1F0A8
:102680002C813D81223031052CF48C819D81009775
:1026900061F01FC02C813D812230310581F08C8199
:1026A0009D818330910581F014C0EBE3F0E08B81D4
:1026B000808311C0E8E3F0E08B8180830CC0E5E308
:1026C000F0E08B81808307C0E2E3F0E08B818083C0
:1026D00002C081E0898389810F900F900F900F9045
:1026E0000F90CF91DF910895AF92BF92CF92DF927A
:1026F000EF92FF920F931F93DF93CF93CDB7DEB787
:1027000064970FB6F894DEBF0FBECDBF6D837E8396
:102710008F83988729873A874B875C87ED86FE866B
:102720000F87188BA98ABA8ACB8ADC8A29893A89C9
:102730004B895C898D859E85AF85B88979018A0131
:10274000E81AF90A0A0B1B0B29A13AA14BA15CA1BB
:102750008D819E81AF81B885281B390B4A0B5B0B9D
:10276000C801B7010E94751F7B018C0129853A853C
:102770004B855C858D819E81AF81B885281B390B87
:102780004A0B5B0BC801B7010E94CA1FDA01C901DD
:102790009C01AD018D859E85AF85B889820F931F01
:1027A000A41FB51F89839A83AB83BC8389819A81D7
:1027B000AB81BC81BC01CD0164960FB6F894DEBF3D
:1027C0000FBECDBFCF91DF911F910F91FF90EF9082
:1027D000DF90CF90BF90AF900895EF92FF920F934C
:1027E0001F93DF93CF93CDB7DEB7AF970FB6F894B3
:1027F000DEBF0FBECDBF9BA38AA37DA36CA31B8EA0
:102800008AA19BA1009709F4F7C18CA19DA1009713
:1028100009F4F2C11A8E198EEAA1FBA18081EAA106
:10282000FBA19181692F41E00E94BA1080E090E005
:10283000A0E2B1E48D8B9E8BAF8BB88F6D897E89C2
:102840008F89988D2BEA3AEA4AEA50E40E941F02E7
:10285000DC01CB01898B9A8BAB8BBC8B69897A8924
:102860008B899C8920E030E040E85FE30E942504EA
:1028700088231CF481E0888B91C069897A898B89CF
:102880009C8920E030E04FE753E40E94C50318160E
:102890000CF07BC06D897E898F89988D20E030E0B7
:1028A0004AE754E40E941903DC01CB018C879D8721
:1028B000AE87BF876C857D858E859F8520E030E063
:1028C0004AE755E40E941F02DC01CB018887998703
:1028D000AA87BB87688579858A859B8520E030E05B
:1028E00040E85FE30E94250488232CF481E090E017
:1028F0009F838E833FC0688579858A859B8520E08C
:102900003FEF4FE757E40E94C50318164CF56C855E
:102910007D858E859F8520E030E040E251E40E9475
:102920001F02DC01CB01BC01CD010E944900DC018A
:10293000CB019F838E830FC080E991E09D838C83C0
:102940008C819D810197F1F79D838C838E819F817E
:1029500001979F838E838E819F81009769F724C0A2
:10296000688579858A859B850E944900DC01CB01B9
:102970009F838E838E819F819B838A838A819B81A3
:102980000197F1F79B838A830FC069897A898B89C4
:102990009C890E944900DC01CB01888B888989834E
:1029A00089818A95F1F78983EAA1FBA18081EAA157
:1029B000FBA19181692F40E00E94BA10EAA1FBA11E
:1029C000828180931201EAA1FBA18281813009F00A
:1029D00077C080E00E94720A85E00E944F0682E084
:1029E0000E944F0622E736E182E0B9010E946107AA
:1029F0002CE036E185E0B9010E9461078E01045E9A
:102A00001F4F1FA30EA381ED90E099A788A793E025
:102A10009AA7E8A5F9A5008008A519A50F5F1F4F83
:102A200019A708A7EEA1FFA100820EA11FA10F5FA9
:102A30001F4F1FA30EA31AA511501AA78AA58823FA
:102A400041F7CE014C960E9441088091FC00909184
:102A5000FD00A091FE00B091FF000097A105B10517
:102A6000A1F38091000190910101A0910201B09128
:102A700003010097A105B10541F3209100013091B8
:102A8000010140910201509103018091FC0090915D
:102A9000FD00A091FE00B091FF0079018A01E81AC3
:102AA000F90A0A0B1B0BD801C701880F991FAA1F2F
:102AB000BB1F880F991FAA1FBB1F9A8F898F7DC0CC
:102AC000EAA1FBA18281882309F077C08E01015E13
:102AD0001F4F1CA70BA78EEC90E09EA78DA793E03D
:102AE0009FA7EDA5FEA500800DA51EA50F5F1F4F9A
:102AF0001EA70DA7EBA5FCA500820BA51CA50F5FCB
:102B00001F4F1CA70BA71FA511501FA78FA5882318
:102B100041F7CE014F960E94410882E00E944F0685
:102B200022E736E182E0B9010E94610780E063E0BC
:102B30000E943B0D80E00E944C0E28EA36E180E0C6
:102B4000B9010E94C60E8091060190910701A091E3
:102B50000801B09109010097A105B105A1F3809189
:102B60000A0190910B01A0910C01B0910D01009709
:102B7000A105B10541F320910A0130910B0140916B
:102B80000C0150910D018091060190910701A091D7
:102B90000801B091090179018A01E81AF90A0A0BC2
:102BA0001B0BD801C701880F991FAA1FBB1F880FD5
:102BB000991FAA1FBB1F9A8F898F898D9A8DCC016F
:102BC000A0E0B0E027E531E040E050E0BC01CD01FD
:102BD0000E94751FDC01CB0120ED37E040E050E0A2
:102BE000BC01CD010E94A81FDA01C9014496ECA1E5
:102BF000FDA19183808302C082E08B8F8B8DAF9685
:102C00000FB6F894DEBF0FBECDBFCF91DF911F91FD
:102C10000F91FF90EF900895DF93CF93CDB7DEB77C
:102C2000809113018F5F8093130180911301813094
:102C300089F40E949D0ACC01A0E0B0E08093FC00E2
:102C40009093FD00A093FE00B093FF0081E00E94EE
:102C5000720A45C080911301823009F040C00E9481
:102C60009D0ACC01A0E0B0E08093000190930101A7
:102C7000A0930201B093030180910401909105019A
:102C8000009711F18091040190910501CC01A0E021
:102C9000B0E0AC013327222780910001909101011F
:102CA000A0910201B0910301820F931FA41FB51FD1
:102CB0008093000190930101A0930201B09303015E
:102CC00010920501109204011092130180E00E94FD
:102CD000720A85E00E94D80682E00E94D806CF9151
:102CE000DF910895DF93CF9300D0CDB7DEB7809109
:102CF0001201282F30E03A83298389819A81009735
:102D000079F029813A8121303105E9F4809104017B
:102D1000909105010196909305018093040113C0E1
:102D200080910E0190910F01A0911001B0911101BD
:102D30000196A11DB11D80930E0190930F01A093E8
:102D40001001B09311010F900F90CF91DF91089572
:102D5000DF93CF93CDB7DEB7809114018F5F80935F
:102D6000140180911401813091F40E948109CC01F9
:102D7000A0E0B0E08093060190930701A0930801C2
:102D8000B093090180E062E00E943B0D4DC080914C
:102D90001401823009F048C0109214010E94810988
:102DA000CC01A0E0B0E080930A0190930B01A093C6
:102DB0000C01B0930D0180910E0190910F01A09133
:102DC0001001B09111010097A105B10539F1809171
:102DD0000E0190910F01A0911001B0911101AC0171
:102DE0003327222780910A0190910B01A0910C01B9
:102DF000B0910D01820F931FA41FB51F80930A018C
:102E000090930B01A0930C01B0930D0110920E0151
:102E100010920F01109210011092110180E00E9497
:102E2000890E82E00E94D806CF91DF910895DF934A
:102E3000CF9300D00F92CDB7DEB79B838A831982E0
:102E40008A819B81009719F1EA81FB81828181301F
:102E500059F4EA81FB818181EA81FB819081692FAC
:102E600041E00E94BA1015C0EA81FB81828188236B
:102E700059F4EA81FB818181EA81FB819081692F8C
:102E800040E00E94BA1005C081E0898302C082E060
:102E9000898389810F900F900F90CF91DF910895D2
:102EA000DF93CF9300D00F92CDB7DEB79B838A8399
:102EB00019828A819B81009719F1EA81FB818281C5
:102EC000813059F4EA81FB818181EA81FB81908123
:102ED000692F40E00E94BA1015C0EA81FB8182810F
:102EE000882359F4EA81FB818181EA81FB81908109
:102EF000692F40E00E94BA1005C081E0898302C0BA
:102F000082E0898389810F900F900F90CF91DF919C
:102F10000895DF93CF9300D00F92CDB7DEB79B8398
:102F20008A8319828A819B81009751F0EA81FB8113
:102F30008181EA81FB819081692F0E94C21102C0C8
:102F400082E0898389810F900F900F90CF91DF915C
:102F50000895DF93CF930F92CDB7DEB78983898130
:102F6000982F917080E063E0492F0E94BA10898108
:102F70008695982F917080E064E0492F0E94BA10E6
:102F8000898186958695982F917080E065E0492F1C
:102F90000E94BA108981869586958695982F9170A2
:102FA00080E066E0492F0E94BA100F90CF91DF9128
:102FB0000895DF93CF93CDB7DEB72E970FB6F89471
:102FC000DEBF0FBECDBF80E062E041E00E94BA10DC
:102FD00080E090E0A0E0B0E48B879C87AD87BE875F
:102FE0006B857C858D859E8520E030E04AE755E441
:102FF0000E941F02DC01CB018F839887A987BA87C3
:103000006F81788589859A8520E030E040E85FE32C
:103010000E94250488232CF481E090E09E838D8318
:103020003FC06F81788589859A8520E03FEF4FE723
:1030300057E40E94C50318164CF56B857C858D8579
:103040009E8520E030E040E251E40E941F02DC0156
:10305000CB01BC01CD010E944900DC01CB019E8364
:103060008D830FC080E991E09C838B838B819C8151
:103070000197F1F79C838B838D819E8101979E83BD
:103080008D838D819E81009769F714C06F8178854B
:1030900089859A850E944900DC01CB019E838D833E
:1030A0008D819E819A83898389819A810197F1F725
:1030B0009A83898380E062E040E00E94BA102E96F5
:1030C0000FB6F894DEBF0FBECDBFCF91DF9108954C
:1030D000DF93CF930F92CDB7DEB7898380E061E0B5
:1030E00040E00E94BA10898182958F700E94A917D2
:1030F0000E94D91789810E94A9170E94D9170F90A1
:10310000CF91DF910895DF93CF930F92CDB7DEB7C4
:10311000898380E061E041E00E94BA108981829554
:103120008F700E94A9170E94D91789810E94A91740
:103130000E94D9170F90CF91DF910895DF93CF931D
:10314000CDB7DEB72E970FB6F894DEBF0FBECDBF5A
:1031500080E090E0A0E2B2E48B879C87AD87BE87D9
:103160006B857C858D859E8520E030E04AE755E4BF
:103170000E941F02DC01CB018F839887A987BA8741
:103180006F81788589859A8520E030E040E85FE3AB
:103190000E94250488232CF481E090E09E838D8397
:1031A0003FC06F81788589859A8520E03FEF4FE7A2
:1031B00057E40E94C50318164CF56B857C858D85F8
:1031C0009E8520E030E040E251E40E941F02DC01D5
:1031D000CB01BC01CD010E944900DC01CB019E83E3
:1031E0008D830FC080E991E09C838B838B819C81D0
:1031F0000197F1F79C838B838D819E8101979E833C
:103200008D838D819E81009769F714C06F817885C9
:1032100089859A850E944900DC01CB019E838D83BC
:103220008D819E819A83898389819A810197F1F7A3
:103230009A83898382E00E94A9170E94D91782E0AD
:103240000E94A9170E94D91788E00E94A9170E941E
:10325000D9178CE00E94681881E00E9468182E96A9
:103260000FB6F894DEBF0FBECDBFCF91DF910895AA
:10327000DF93CF93CDB7DEB781E00E946818CF917E
:10328000DF910895DF93CF9300D00F92CDB7DEB7D3
:103290009B838A8319828A819B81009789F00AC067
:1032A000EA81FB8180810E9483188A819B8101963B
:1032B0009B838A83EA81FB818081882389F702C00E
:1032C00082E0898389810F900F900F90CF91DF91D9
:1032D0000895DF93CF93CDB7DEB761970FB6F8941B
:1032E000DEBF0FBECDBF998B888B1F8688899989D9
:1032F000009709F484C07CC0E889F98980810E9424
:103300008318888999890196998B888B80E090E051
:10331000A8ECB2E48B879C87AD87BE876B857C85E4
:103320008D859E8520E030E04AE755E40E941F022B
:10333000DC01CB018F839887A987BA876F81788555
:1033400089859A8520E030E040E85FE30E9425040B
:1033500088232CF481E090E09E838D833FC06F81B1
:10336000788589859A8520E03FEF4FE757E40E94F2
:10337000C50318164CF56B857C858D859E8520E0F0
:1033800030E040E251E40E941F02DC01CB01BC01AD
:10339000CD010E944900DC01CB019E838D830FC0CB
:1033A00080E991E09C838B838B819C810197F1F76D
:1033B0009C838B838D819E8101979E838D838D81DC
:1033C0009E81009769F714C06F81788589859A85F9
:1033D0000E944900DC01CB019E838D838D819E81FB
:1033E0009A83898389819A810197F1F79A838983E6
:1033F000E889F9898081882309F07ECF02C082E0C4
:103400008F878F8561960FB6F894DEBF0FBECDBF54
:10341000CF91DF910895DF93CF93CDB7DEB761975A
:103420000FB6F894DEBF0FBECDBF6E877F87888B47
:10343000998B1B828E859F85A889B989BB239CF4B3
:103440008DE20E9483188E859F85A889B989B095E1
:10345000A095909581959F4FAF4FBF4F8E879F87C7
:10346000A88BB98B3CC08E859F85A889B9890097A8
:10347000A105B105A1F580E30E9483184DC08E859A
:103480009F85A889B9892AE030E040E050E0BC017E
:10349000CD010E94A81FDC01CB0189838E859F8509
:1034A000A889B9892AE030E040E050E0BC01CD01B4
:1034B0000E94CA1FDA01C9018E879F87A88BB98B2A
:1034C0008B81282F30E08981482F405DCE01049602
:1034D000FC01E20FF31F40838B818F5F8B838E850E
:1034E0009F85A889B9890097A105B10541F68B810F
:1034F00081508A830EC08A81282F30E0CE01049645
:10350000FC01E20FF31F80810E9483188A818150A1
:103510008A838A8188237CF761960FB6F894DEBF90
:103520000FBECDBFCF91DF910895DF93CF93CDB77D
:10353000DEB76F970FB6F894DEBF0FBECDBF6C8FAE
:103540007D8F8E8F9F8F198A8C8D9D8DAE8DBF8DB7
:10355000BB239CF48DE20E9483188C8D9D8DAE8DD3
:10356000BF8DB095A095909581959F4FAF4FBF4F60
:103570008C8F9D8FAE8FBF8F3CC08C8D9D8DAE8DFF
:10358000BF8D0097A105B105A1F580E30E948318C6
:10359000C0C08C8D9D8DAE8DBF8D2AE030E040E0A7
:1035A00050E0BC01CD010E94A81FDC01CB018F8738
:1035B0008C8D9D8DAE8DBF8D2AE030E040E050E0D7
:1035C000BC01CD010E94CA1FDA01C9018C8F9D8FF9
:1035D000AE8FBF8F8989282F30E08F85482F405DBF
:1035E000CE014296FC01E20FF31F408389898F5F71
:1035F000898B8C8D9D8DAE8DBF8D0097A105B105FA
:1036000041F689898150888B80C08889282F30E0D5
:10361000CE014296FC01E20FF31F80810E948318C5
:1036200080E090E0A8ECB2E48B879C87AD87BE87F2
:103630006B857C858D859E8520E030E04AE755E4EA
:103640000E941F02DC01CB018F839887A987BA876C
:103650006F81788589859A8520E030E040E85FE3D6
:103660000E94250488232CF481E090E09E838D83C2
:103670003FC06F81788589859A8520E03FEF4FE7CD
:1036800057E40E94C50318164CF56B857C858D8523
:103690009E8520E030E040E251E40E941F02DC0100
:1036A000CB01BC01CD010E944900DC01CB019E830E
:1036B0008D830FC080E991E09C838B838B819C81FB
:1036C0000197F1F79C838B838D819E8101979E8367
:1036D0008D838D819E81009769F714C06F817885F5
:1036E00089859A850E944900DC01CB019E838D83E8
:1036F0008D819E819A83898389819A810197F1F7CF
:103700009A83898388898150888B888988230CF0E3
:103710007CCF6F960FB6F894DEBF0FBECDBFCF91B2
:10372000DF910895DF93CF9300D00F92CDB7DEB72E
:103730008A836B838B81882319F48A81898306C0ED
:103740008B81813019F48A81805C898389818068CA
:10375000898389810E9468180F900F900F90CF91F4
:10376000DF910895DF93CF93CDB7DEB728970FB6DB
:10377000F894DEBF0FBECDBF8C837E836D834F83F5
:1037800028871B828D819E81009759F18C81882F1B
:1037900090E0880F991F880F991F880F991F8983C0
:1037A00089818064898389810E9468181A820EC089
:1037B0008A81282F30E08D819E81FC01E20FF31F6A
:1037C00080810E9483188A818F5F8A838A818830F2
:1037D00078F38F8168850E94921B8C810E948318E8
:1037E00002C082E08B838B8128960FB6F894DEBFEF
:1037F0000FBECDBFCF91DF910895DF93CF9300D05F
:103800000F92CDB7DEB79B838A8319828A819B8111
:10381000009719F1EA81FB818281813059F4EA81B4
:10382000FB818181EA81FB819081692F41E00E94C7
:10383000BA1015C0EA81FB818281882359F4EA819C
:10384000FB818181EA81FB819081692F40E00E94A8
:10385000BA1005C081E0898302C082E08983898132
:103860000F900F900F90CF91DF910895DF93CF933A
:1038700000D00F92CDB7DEB79B838A8319828A81ED
:103880009B81009719F1EA81FB818281813059F493
:10389000EA81FB818181EA81FB819081692F40E08F
:1038A0000E94BA1015C0EA81FB818281882359F4F5
:1038B000EA81FB818181EA81FB819081692F40E06F
:1038C0000E94BA1005C081E0898302C082E089832A
:1038D00089810F900F900F90CF91DF910895DF9322
:1038E000CF9300D00F92CDB7DEB79B838A83198226
:1038F0008A819B81009751F0EA81FB818181EA8175
:10390000FB819081692F0E94C21102C082E08983ED
:1039100089810F900F900F90CF91DF910895DF93E1
:10392000CF93CDB7DEB7C655D0400FB6F894DEBF03
:103930000FBECDBF0E94CB0C0E949E180E94EC0CC3
:103940009E01215E3F4F38AF2FAB83EE90E09AAFE0
:1039500089AF93E09BAFE9ADFAAD008029AD3AADF8
:103960002F5F3F4F3AAF29AFEFA9F8AD00822FA9E3
:1039700038AD2F5F3F4F38AF2FAB3BAD31503BAF32
:103980008BAD882341F7FE01B296FDAFECAF20EE80
:1039900030E03FAF2EAF33E021963FAF2197EEAD41
:1039A000FFAD00802EAD3FAD2F5F3F4F3FAF2EAF3D
:1039B000ECADFDAD00822CAD3DAD2F5F3F4F3DAF77
:1039C0002CAF21963FAD2197315021963FAF2197E3
:1039D00021968FAD2197882311F7FE01B596239686
:1039E000FFAFEEAF23972DED30E025963FAF2EAF22
:1039F000259733E026963FAF26972596EEADFFAD8F
:103A00002597008025962EAD3FAD25972F5F3F4F20
:103A100025963FAF2EAF25972396EEADFFAD2397AA
:103A2000008223962EAD3FAD23972F5F3F4F239605
:103A30003FAF2EAF239726963FAD2697315026965F
:103A40003FAF269726968FAD26978823B1F6FE01C5
:103A5000B8962896FFAFEEAF28972AED30E02A9669
:103A60003FAF2EAF2A9733E02B963FAF2B972A9686
:103A7000EEADFFAD2A9700802A962EAD3FAD2A9776
:103A80002F5F3F4F2A963FAF2EAF2A972896EEAD75
:103A9000FFAD2897008228962EAD3FAD28972F5F67
:103AA0003F4F28963FAF2EAF28972B963FAD2B97D1
:103AB00031502B963FAF2B972B968FAD2B978823AA
:103AC000B1F6FE01BB962D96FFAFEEAF2D9727ED19
:103AD00030E02F963FAF2EAF2F9733E060963FAF89
:103AE00060972F96EEADFFAD2F9700802F962EADED
:103AF0003FAD2F972F5F3F4F2F963FAF2EAF2F97A2
:103B00002D96EEADFFAD2D9700822D962EAD3FADDB
:103B10002D972F5F3F4F2D963FAF2EAF2D9760967D
:103B20003FAD6097315060963FAF609760968FAD24
:103B300060978823B1F6FE01BE966296FFAFEEAFA6
:103B4000629724ED30E064963FAF2EAF649733E088
:103B500065963FAF65976496EEADFFAD64970080C4
:103B600064962EAD3FAD64972F5F3F4F64963FAF95
:103B70002EAF64976296EEADFFAD629700826296BB
:103B80002EAD3FAD62972F5F3F4F62963FAF2EAF96
:103B9000629765963FAD6597315065963FAF6597E3
:103BA00065968FAD65978823B1F61AAA19AA1CAA43
:103BB0001BAACE014F969E012F5C3F4FB9010E9478
:103BC000ED13CE0182969E012D5C3F4FB9010E94FC
:103BD000ED1389A99AA92AE030E0B9010E94941F47
:103BE000CB019AAB89AB8BA99CA92AE030E0B90143
:103BF0000E94941FCB019CAB8BAB8BA99CA9E9A91C
:103C0000FAA9FEABEDAB67969FAF8EAF679767964D
:103C10002EAD3FAD67978DA99EA98217930730F40B
:103C2000EDA9FEA96796FFAFEEAF679767962EAD39
:103C30003FAD67973E8F2D8F8D8D9E8D8A3091057C
:103C400008F093C0CE0185960E948917CE018E960A
:103C50000E946F1CCE0188960E945017CE018B9651
:103C60000E94501780E060E00E94921B80E690E086
:103C70000E94421980E061E00E94921B81E790E07F
:103C80000E94421980E090E0A8ECB2E4898F9A8FFC
:103C9000AB8FBC8F698D7A8D8B8D9C8D20E030E051
:103CA0004AE755E40E941F02DC01CB018D8B9E8BFD
:103CB000AF8BB88F6D897E898F89988D20E030E039
:103CC00040E85FE30E94250488232CF481E090E023
:103CD0009C8B8B8B3FC06D897E898F89988D20E06E
:103CE0003FEF4FE757E40E94C50318164CF5698D66
:103CF0007A8D8B8D9C8D20E030E040E251E40E9473
:103D00001F02DC01CB01BC01CD010E944900DC0196
:103D1000CB019C8B8B8B0FC080E991E09A8B898BB8
:103D200089899A890197F1F79A8B898B8B899C896C
:103D300001979C8B8B8B8B899C89009769F739CF76
:103D40006D897E898F89988D0E944900DC01CB01A5
:103D50009C8B8B8B8B899C89988B8F878F8598897F
:103D60000197F1F7988B8F8724CF8D8D9E8D8431AD
:103D7000910508F099C08D8D9E8D8A30910508F4CB
:103D800093C0CE018B960E948917CE018E960E9419
:103D90006F1CCE0188960E945017CE0185960E9416
:103DA000501780E060E00E94921B82E890E00E9441
:103DB000421980E061E00E94921B83E990E00E943A
:103DC000421980E090E0A6E9B3E48B879C87AD8739
:103DD000BE876B857C858D859E8520E030E04AE737
:103DE00055E40E941F02DC01CB018F839887A987CD
:103DF000BA876F81788589859A8520E030E040E830
:103E00005FE30E94250488232CF481E090E09E83E8
:103E10008D833FC06F81788589859A8520E03FEF4B
:103E20004FE757E40E94C50318164CF56B857C8557
:103E30008D859E8520E030E040E251E40E941F0223
:103E4000DC01CB01BC01CD010E944900DC01CB01AA
:103E50009E838D830FC080E991E09C838B838B814F
:103E60009C810197F1F79C838B838D819E810197C3
:103E70009E838D838D819E81009769F79ACE6F8195
:103E8000788589859A850E944900DC01CB019E8353
:103E90008D838D819E819A83898389819A810197FF
:103EA000F1F79A83898385CECE0188960E941717F1
:103EB000CE018B960E945017CE0185960E94501716
:103EC000CE018E960E94361C80E060E00E94921B1C
:103ED00084EA90E00E94421980E061E00E94921B17
:103EE00085EB90E00E94421964CE629FD001739FDF
:103EF000F001829FE00DF11D649FE00DF11D929F86
:103F0000F00D839FF00D749FF00D659FF00D9927C4
:103F1000729FB00DE11DF91F639FB00DE11DF91FE8
:103F2000BD01CF0111240895AA1BBB1B51E107C09D
:103F3000AA1FBB1FA617B70710F0A61BB70B881F39
:103F4000991F5A95A9F780959095BC01CD010895C8
:103F5000A1E21A2EAA1BBB1BFD010DC0AA1FBB1F8D
:103F6000EE1FFF1FA217B307E407F50720F0A21BFF
:103F7000B30BE40BF50B661F771F881F991F1A946C
:103F800069F760957095809590959B01AC01BD0196
:103F9000CF01089597FB092E05260ED057FD04D0BA
:103FA000D7DF0AD0001C38F4509540953095219504
:103FB0003F4F4F4F5F4F0895F6F79095809570955E
:103FC00061957F4F8F4F9F4F08952F923F924F9251
:103FD0005F926F927F928F929F92AF92BF92CF9299
:103FE000DF92EF92FF920F931F93CF93DF93CDB7A2
:103FF000DEB7CA1BDB0B0FB6F894DEBF0FBECDBF1A
:1040000009942A88398848885F846E847D848C84EA
:104010009B84AA84B984C884DF80EE80FD800C81F3
:104020001B81AA81B981CE0FD11D0FB6F894DEBFD6
:0C4030000FBECDBFED010895F894FFCF46
:10403C002044554445212057415443484F55542062
:10404C000044495354414E4345203C2031302063B9
:10405C006D0020204265204361726566756C2021DD
:10406C0020200044495354414E4345203C203230DB
:10407C0020636D002020202020434C4541522020FD
:10408C00202020200044495354414E4345203E20DB
:10409C00323020636D0000000000000000000003BF
:1040AC0000000300050201010201020201000201ED
:0640BC00030501030700EB
:00000001FF
